:100000000C9462000C948A000C948A000C948A0070
:100010000C948A000C948A000C948A000C948A0038
:100020000C948A000C948A000C948A000C948A0028
:100030000C948A000C948A000C948A000C948A0018
:100040000C94A1050C948A000C9428050C940205CC
:100050000C948A000C948A000C948A000C948A00F8
:100060000C948A000C948A000000000025002800EF
:100070002B0000000000240027002A0000000000E0
:1000800023002600290004040404040404040202DA
:100090000202020203030303030301020408102007
:1000A0004080010204081020010204081020000012
:1000B0000008000201000003040700000000000027
:1000C0000000800911241FBECFEFD8E0DEBFCDBFF6
:1000D00011E0A0E0B1E0E0EFF4E102C005900D9284
:1000E000A435B107D9F722E0A4E5B1E001C01D9223
:1000F000A736B207E1F710E0C2E6D0E004C02197CE
:10010000FE010E945C0AC136D107C9F70E94EB05C7
:100110000C94760A0C94000080E991E00895CF9247
:10012000DF92EF92FF920F931F93CF93DF936C01B7
:100130007A018B01C0E0D0E0CE15DF0581F0D80157
:100140006D918D01D601ED91FC910190F081E02D32
:10015000C6010995892B11F02196EECF7E01C701CA
:10016000DF91CF911F910F91FF90EF90DF90CF9093
:100170000895089580E090E00895FC01538D448D2A
:10018000252F30E0842F90E0821B930B541710F042
:10019000CF96089501970895FC01918D828D98174F
:1001A00061F0828DDF01A80FB11D5D968C91928D5B
:1001B0009F5F9F73928F90E008958FEF9FEF089558
:1001C000FC01918D828D981731F0828DE80FF11D21
:1001D000858D90E008958FEF9FEF0895FC01918D3C
:1001E000228D892F90E0805C9F4F821B91098F7335
:1001F0009927089586EA91E00E94EE0021E0892B7C
:1002000009F420E0822F0895FC01848DDF01A80FFE
:10021000B11DA35ABF4F2C91848D90E001968F732E
:100220009927848FA689B7892C93A089B1898C914D
:10023000837080648C93938D848D981306C002889C
:10024000F389E02D80818F7D80830895EF92FF9266
:100250000F931F93CF93DF93EC0181E0888F9B8DE9
:100260008C8D981305C0E889F989808185FD26C0A9
:10027000F62E0B8D10E00F5F1F4F0F731127E02E2E
:100280008C8DE8120CC00FB607FCFACFE889F9890B
:10029000808185FFF5CFCE010E940401F1CF8B8DC7
:1002A000FE01E80FF11DE35AFF4FF0829FB7F8946B
:1002B0000B8FEA89FB89808180620AC09FB7F8941E
:1002C000EE89FF896083E889F98980818370806481
:1002D00080839FBF81E090E0DF91CF911F910F91CC
:1002E000FF90EF900895CF93DF93EC01888D8823E2
:1002F000C9F0EA89FB89808185FD05C0A889B98993
:100300008C9186FD0FC00FB607FCF5CF808185FF6D
:10031000F2CFA889B9898C9185FFEDCFCE010E94DB
:100320000401E7CFDF91CF91089580E090E0892B21
:1003300029F00E94FA0081110C94000008950F9397
:100340001F93CF93DF93209155012F5F322F37708A
:100350003093550120FF02C020E801C020E031FDAC
:100360002064347009F02062205FFC01EC012396C8
:1003700000E011E06485662331F070E0C8010E945E
:10038000000A6F5F01C060E06187322F369F030E65
:1003900030E0311D1124311102C0168202C03150EB
:1003A0003683662311F0615061873196CE17DF07DF
:1003B00009F7DF91CF911F910F910895529A0895F7
:1003C0000F931F93CF93DF93CDB7DEB762970FB62E
:1003D000F894DEBF0FBECDBF8C01F901DC011C9685
:1003E0008C917A8369835C834B835E834D83908198
:1003F0009D8791819E8792819F87813029F4CE01CC
:1004000001960E949F0106C01C861B861A861986CB
:1004100018861F8283E0888B1A8A198AD801ED9189
:10042000FC910484F585E02DBE016F5F7F4FC8010C
:10043000099562960FB6F894DEBF0FBECDBFDF916F
:10044000CF911F910F9108950F931F93CF93DF9337
:10045000CDB7DEB762970FB6F894DEBF0FBECDBF43
:100460008C01F901DC011C968C917A8369835C8391
:100470004B835E834D8390819D8791819E8792817E
:100480009F87813029F4CE0101960E949F0106C00A
:100490001C861B861A86198618861F82188A1A8A55
:1004A000198AD801ED91FC910484F585E02DBE01F7
:1004B0006F5F7F4FC801099562960FB6F894DEBF53
:1004C0000FBECDBFDF91CF911F910F910895A0E591
:1004D000B2E02C91E1E7F1E0218711969C91119710
:1004E000928712968C9183872787908B818B228BA2
:1004F000938B848B258B968B878B208F918F828F0C
:10050000089580E090E00895FC0185859685089522
:10051000CF93DF9300D000D000D0CDB7DEB7AB01D2
:100520001C821D821E82DC01ED91FC910190F08104
:10053000E02D19821A821B829E012F5F3F4FBE0160
:100540006C5F7F4F099526960FB6F894DEBF0FBEFD
:10055000CDBFDF91CF9108954F925F926F927F92BE
:100560008F929F92AF92CF92DF92EF92FF920F9372
:100570001F93CF93DF933C01EB010E947C05F301B5
:1005800027853089621B730B6A307105B0F3F894CC
:10059000E881F9810BB104601BB11B7F1BB9CA84D0
:1005A0008F814C2D481B842F4F839F844A805B8012
:1005B000FD84EC84DE84F394E394D3949E813885A7
:1005C0008984AB844181D20120E0622F722F718136
:1005D000442788947111780F08F47FEF81958894EF
:1005E000F0FC470F47958894F1FC470F4795889496
:1005F000F2FC470F47958894F3FC470F4795889482
:10060000F4FC470F47958894F5FC470F479588946D
:10061000F6FC470F47958894F7FC470F4795889459
:10062000272FF110242F8C0D422F002C0BB900C066
:1006300047FF1BB970812227889400C000C0002C9E
:100640001BB97111790F00C0002C0BB900C046FF17
:100650001BB908F47FEF9195889400C000C0002C6E
:100660001BB9E0FC270F00C0002C0BB900C045FFF0
:100670001BB927958894E1FC270F00C000C0002C0F
:100680001BB92795889400C0002C0BB900C044FF0B
:100690001BB9E2FC270F2795889400C000C0002CEE
:1006A0001BB9E3FC270F00C0002C0BB900C043FFAF
:1006B0001BB927958894E4FC270F00C000C0002CCC
:1006C0001BB92795889400C0002C0BB900C042FFCD
:1006D0001BB9E5FC270F2795889400C000C0002CAB
:1006E0001BB9E6FC270F00C0002C0BB900C041FF6E
:1006F0001BB927958894E7FC270F00C000C0002C89
:100700001BB92795889400C0002C0BB900C040FF8E
:100710001BB9472FE110422F980D00C000C0002CDC
:100720001BB900C000C0002C0BB900C047FF1BB9AB
:1007300072812227889400C000C0002C1BB971115F
:10074000730F00C0002C0BB900C046FF1BB908F4A2
:100750007FEFE90DF11D00C000C0002C1BB9D0FCDB
:10076000270F00C0002C0BB900C045FF1BB927950F
:100770008894D1FC270F00C000C0002C1BB927951E
:10078000889400C0002C0BB900C044FF1BB9D2FCF8
:10079000270F2795889400C000C0002C1BB9D3FCFC
:1007A000270F00C0002C0BB900C043FF1BB92795D1
:1007B0008894D4FC270F00C000C0002C1BB92795DB
:1007C000889400C0002C0BB900C042FF1BB9D5FCB7
:1007D000270F2795889400C000C0002C1BB9D6FCB9
:1007E000270F00C0002C0BB900C041FF1BB9279593
:1007F0008894D7FC270F00C000C0002C1BB9279598
:10080000889400C0002C0BB900C040FF1BB9472FD3
:10081000D110422F319500C000C0002C1BB93A0DF9
:1008200000C000C00BB900C047FF1BB9718122276F
:10083000889400C000C0002C1BB97111780F00C053
:10084000002C0BB900C046FF1BB908F47FEF81955F
:10085000889400C000C0002C1BB9F0FC270F00C01A
:10086000002C0BB900C045FF1BB927958894F1FCFB
:10087000270F00C000C0002C1BB92795889400C02A
:10088000002C0BB900C044FF1BB9F2FC270F2795C1
:10089000889400C000C0002C1BB9F3FC270F00C0D7
:1008A000002C0BB900C043FF1BB927958894F4FCBA
:1008B000270F00C000C0002C1BB92795889400C0EA
:1008C000002C0BB900C042FF1BB9F5FC270F279580
:1008D000889400C000C0002C1BB9F6FC270F00C094
:1008E000002C0BB900C041FF1BB927958894F7FC79
:1008F000270F00C000C0002C1BB92795889400C0AA
:10090000002C0BB900C040FF1BB9472FF110422F3C
:100910008C0D00C000C0002C1BB9119709F086CEC9
:1009200020EE31E0D2010E94360ADC01CB01F4E076
:10093000B695A79597958795FA95D1F720E030E081
:10094000B901EAE94E9E040C611D5E9E600D711DA9
:100950001124650D711D860F971FA11DB11D893EC4
:10096000E3E09E07A105B10508F434C0885E93401A
:10097000A109B10942E0B695A795979587954A9543
:10098000D1F747E0849F080E211D949F200D311D53
:100990001124290F311D6091540170E0860F971FBB
:1009A000820F931F4091A2015091A3016091A40175
:1009B0007091A501292F3327420F531F611D711D0F
:1009C0004093A2015093A3016093A4017093A501E9
:1009D0008093540178940E947C05F301708B6787A3
:1009E000DF91CF911F910F91FF90EF90DF90CF900B
:1009F000AF909F908F907F906F905F904F900895F1
:100A00000E94710A1F920F920FB60F9211242F931A
:100A10003F934F935F936F937F938F939F93AF9386
:100A2000BF93EF93FF9386EA91E00E940401FF9148
:100A3000EF91BF91AF919F918F917F916F915F9156
:100A40004F913F912F910F900FBE0F901F901895CF
:100A50001F920F920FB60F9211242F938F939F9393
:100A6000EF93FF93E091B601F091B7018081E0919F
:100A7000BC01F091BD0182FD12C090818091BF0147
:100A80008F5F8F732091C001821751F0E091BF01F9
:100A9000F0E0EA55FE4F958F8093BF0101C0808141
:100AA000FF91EF919F918F912F910F900FBE0F901B
:100AB0001F901895CF93DF93009779F0FC01019078
:100AC0000020E9F73197AF01481B590BBC0186EABA
:100AD00091E00E948F00EC0102C0C0E0D0E042E053
:100AE00050E061E571E086EA91E00E948F008C0F92
:100AF0009D1FDF91CF9108953FB7F89480916302D5
:100B000090916402A0916502B091660226B5A89BFF
:100B100005C02F3F19F00196A11DB11D3FBFBA2F8F
:100B2000A92F982F8827820F911DA11DB11DBC01EF
:100B3000CD0142E0660F771F881F991F4A95D1F7B4
:100B400008951F920F920FB60F9211242F933F9387
:100B50008F939F93AF93BF938091A2019091A30134
:100B6000A091A401B091A5013091620223E0230F6E
:100B70002D3720F40196A11DB11D05C026E8230FD5
:100B80000296A11DB11D209362028093A201909351
:100B9000A301A093A401B093A50180916302909159
:100BA0006402A0916502B09166020196A11DB11D7B
:100BB0008093630290936402A0936502B0936602EF
:100BC000BF91AF919F918F913F912F910F900FBE49
:100BD0000F901F901895CF93DF9300D01F92CDB741
:100BE000DEB7789484B5826084BD84B5816084BDAD
:100BF00085B5826085BD85B5816085BD80916E00BB
:100C0000816080936E0010928100809181008260EB
:100C10008093810080918100816080938100809128
:100C200080008160809380008091B1008460809317
:100C3000B1008091B00081608093B00080917A0013
:100C4000846080937A0080917A00826080937A0039
:100C500080917A00816080937A0080917A00806828
:100C600080937A001092C100E091B601F091B70133
:100C700082E08083E091B201F091B3011082E091B3
:100C8000B401F091B50180E180831092BE01E09142
:100C9000BA01F091BB0186E08083E091B801F09148
:100CA000B901808180618083E091B801F091B90140
:100CB000808188608083E091B801F091B9018081E2
:100CC00080688083E091B801F091B90180818F7DC7
:100CD000808384E391E00E945A058091690181112B
:100CE00045C010925B0110925A018FEF80935E0114
:100CF00080935F0180936001809361018093620122
:100D00008093630181E080936401109266011092E8
:100D1000650110925D0110925C01809192019091A9
:100D20009301892B31F488E591E0909393018093AE
:100D30009201E0915601F0915701309721F088E53A
:100D400091E09583848388E591E0909357018093A7
:100D50005601109268011092670184E191E090932E
:100D600059018093580181E080936901529A81E78B
:100D700091E090935B0180935A0189E090E0909319
:100D80006601809365018091460290914702A0918F
:100D90004802B0914902843C29E09207A105B105BF
:100DA00020F484EC99E0A0E0B0E0809346029093B8
:100DB0004702A0934802B0934902509153025093C6
:100DC0007101409154024093720130915502309369
:100DD00073015093740140937501309376015093E1
:100DE000770140937801309379012091500220934C
:100DF0007A019091510290937B01809152028093ED
:100E00007C0150937D0140937E0130937F012093BC
:100E100080019093810180938201209383019093BC
:100E200084018093850120938601909387018093AC
:100E300088012093890190938A0180938B01EEE9C8
:100E4000F0E02491EAE8F0E084918823C9F090E092
:100E5000880F991FFC01EE58FF4FA591B491FC013A
:100E6000E859FF4F459154913FB7F8949C91822FD8
:100E7000809598239C93DA019C9189238C933FBFA2
:100E800080E090E00E94DA09282F30E03093990149
:100E900020939801853028F060E080E090E00E9487
:100EA000E209E2EBF0E08491EEE9F0E02491EAE877
:100EB000F0E03491332309F43AC0882339F18330C8
:100EC00091F038F48130A9F0823001F584B58F7D3E
:100ED00012C0873091F08830A1F08430B9F480914D
:100EE00080008F7D03C0809180008F778093800089
:100EF0000DC084B58F7784BD09C09091B0009F77F5
:100F000003C09091B0009F7D9093B000E32FF0E07C
:100F1000EE0FFF1FE458FF4FA591B4918C918223EF
:100F200021E090E009F420E0022F192F02C000E038
:100F300010E08091A0019091A1018017910799F094
:100F40002FB7F8948091A2019091A301A091A401E0
:100F5000B091A5012FBF80939C0190939D01A09318
:100F60009E01B0939F012FB7F8948091A2019091B8
:100F7000A301A091A401B091A5012FBF40919C01B4
:100F800050919D0160919E0170919F01841B950B72
:100F9000A60BB70BC397A105B10520F180919A016B
:100FA00090919B0180179107E9F010939B010093AA
:100FB0009A0101301105B1F48AE491E00E945A05CA
:100FC0008091980190919901019665E070E00E94EE
:100FD000000A8093980190939901682F80E090E037
:100FE0000E94E2091093A1010093A0018091980151
:100FF000909199018130910539F194F4892B09F090
:1010000041C00E94670280915C0280937A018091C6
:101010005D0280937B0180915E0280937C0140C0E1
:101020008230910501F1039769F50E946702809172
:101030005F02809386018091600280938701809196
:101040006102809388012CC00E946702809159023E
:101050008093800180915A028093810180915B028C
:10106000809382011DC00E94670280915602809386
:10107000830180915702809384018091580280936C
:1010800085010EC00E9467028091530280938901FE
:101090008091540280938A018091550280938B0144
:1010A000F09043028091460290914702A09148023D
:1010B000B0914902892B8A2B8B2BE9F00E947C0589
:1010C0000091940110919501209196013091970122
:1010D000DC01CB01801B910BA20BB30B00914602EC
:1010E00010914702209148023091490280179107E0
:1010F000A207B307B8F20E947C0560939401709335
:1011000095018093960190939701E0914E02F091A2
:101110004F02309759F040914A0250914B02609132
:101120004C0270914D028F2D0995F82E009192017D
:10113000109193014F2C512C612C712C011511052C
:1011400009F460C0D8011C96EC901C978091440271
:10115000909145028436910510F41C961C92D8019A
:10116000ED91FC91A280B38019821A821B82F1104A
:1011700014C0F80145855685628173819E012F5FF9
:101180003F4FC801F5010995D8011C96EC921C97B8
:1011900014960D911C911597D1CFF8013696AE019A
:1011A0004F5F5F4F6A01480159E0850E911C219104
:1011B000222309F132803320F1F0822F90E0A0E069
:1011C000B0E09C01AD012F5F3F4F4F4F5F4FC30118
:1011D000B2010E94F0099B01AC01832D90E0A0E0D8
:1011E000B0E0BC01CD016F5F7F4F8F4F9F4F0E94DA
:1011F000F009D6018C93BFEFCB1ADB0AE815F9058D
:10120000B1F6B7CF80919001909191019C012F5F31
:101210003F4F309391012093900149970CF447C0C0
:101220008FB7F8940091A2011091A3012091A4011D
:101230003091A5018FBF8091900190919101E8EECE
:10124000F3E08E9FB0018F9F700D9E9F700D112453
:10125000072E000C880B990BC0908C01D0908D014B
:10126000E0908E01F0908F01A90198012C193D09A1
:101270004E095F090E94140A3093450220934402EC
:1012800010929101109290012FB7F8948091A201D1
:101290009091A301A091A401B091A5012FBF8093CB
:1012A0008C0190938D01A0938E01B0938F010E94C9
:1012B0007C056B017C018AE0882E912CA12CB12C3D
:1012C0000E947C05DC01CB018C199D09AE09BF0988
:1012D000883E9340A105B10598F3F1E08F1A91087B
:1012E000A108B10828EEC20E23E0D21EE11CF11CB9
:1012F00081149104A104B10419F70E949501D1CD84
:10130000E6EAF1E01382128288EE93E0A0E0B0E01A
:1013100084839583A683B78386E291E0918380835B
:1013200085EC90E09587848784EC90E097878687AA
:1013300080EC90E0918B808B81EC90E0938B828BA2
:1013400082EC90E0958B848B86EC90E0978B868B7B
:10135000118E128E138E148EE3E4F2E08FEF8083F1
:1013600012821182148613864FEF5FEFBA01478312
:10137000508761877287EFE5F2E0108281831282E5
:10138000ECE5F2E0108211828283E9E5F2E08083ED
:1013900011821282E6E5F2E0808381831282E3E526
:1013A000F2E0808381838283E0E5F2E010821182A3
:1013B00012820895F999FECF92BD81BDF89A9927BE
:1013C00080B50895262FF999FECF1FBA92BD81BD31
:1013D00020BD0FB6F894FA9AF99A0FBE01960895B7
:1013E000DB018F939F930E943D0ABF91AF91A29F13
:1013F000800D911DA39F900DB29F900D1124089513
:1014000097FB072E16F4009407D077FD09D00E94B1
:10141000480A07FC05D03EF4909581959F4F0895AA
:10142000709561957F4F0895A1E21A2EAA1BBB1BF0
:10143000FD010DC0AA1FBB1FEE1FFF1FA217B307A0
:10144000E407F50720F0A21BB30BE40BF50B661FB6
:10145000771F881F991F1A9469F76095709580957A
:1014600090959B01AC01BD01CF0108950E94620AD5
:10147000B7FF0895821B930B08950E94620AA59FEF
:10148000900DB49F900DA49F800D911D112408957F
:10149000AA1BBB1B51E107C0AA1FBB1FA617B7079A
:1014A00010F0A61BB70B881F991F5A95A9F78095B6
:1014B0009095BC01CD010895EE0FFF1F0590F491AA
:1014C000E02D0994A29FB001B39FC001A39F700DAE
:1014D000811D1124911DB29F700D811D1124911D3C
:1014E000089581E090E0F8940C94760AF894FFCF88
:1014F000000000000005000500058802840281024A
:10150000000000002402E001DE01880284028C0059
:10151000AC020000000026018F00BD007301EE0048
:10152000CC00E0005368616C6C20776520706C61C2
:101530007920612067616D653F0050555348212136
:04154000000D0A0090
:00000001FF
